{
  "contractName": "Election",
  "abi": [
    {
      "inputs": [],
      "payable": false,
      "stateMutability": "nonpayable",
      "type": "constructor"
    },
    {
      "constant": true,
      "inputs": [
        {
          "internalType": "uint256",
          "name": "",
          "type": "uint256"
        }
      ],
      "name": "VAdress",
      "outputs": [
        {
          "internalType": "address",
          "name": "",
          "type": "address"
        }
      ],
      "payable": false,
      "stateMutability": "view",
      "type": "function"
    },
    {
      "constant": true,
      "inputs": [
        {
          "internalType": "uint256",
          "name": "",
          "type": "uint256"
        }
      ],
      "name": "candidat",
      "outputs": [
        {
          "internalType": "uint256",
          "name": "id",
          "type": "uint256"
        },
        {
          "internalType": "string",
          "name": "party",
          "type": "string"
        },
        {
          "internalType": "string",
          "name": "name",
          "type": "string"
        },
        {
          "internalType": "uint256",
          "name": "VC",
          "type": "uint256"
        }
      ],
      "payable": false,
      "stateMutability": "view",
      "type": "function"
    },
    {
      "constant": true,
      "inputs": [],
      "name": "candidateCount",
      "outputs": [
        {
          "internalType": "uint256",
          "name": "",
          "type": "uint256"
        }
      ],
      "payable": false,
      "stateMutability": "view",
      "type": "function"
    },
    {
      "constant": true,
      "inputs": [
        {
          "internalType": "uint256",
          "name": "",
          "type": "uint256"
        }
      ],
      "name": "candidates",
      "outputs": [
        {
          "internalType": "uint256",
          "name": "id",
          "type": "uint256"
        },
        {
          "internalType": "string",
          "name": "party",
          "type": "string"
        },
        {
          "internalType": "string",
          "name": "name",
          "type": "string"
        },
        {
          "internalType": "uint256",
          "name": "VC",
          "type": "uint256"
        }
      ],
      "payable": false,
      "stateMutability": "view",
      "type": "function"
    },
    {
      "constant": true,
      "inputs": [],
      "name": "owner",
      "outputs": [
        {
          "internalType": "address",
          "name": "",
          "type": "address"
        }
      ],
      "payable": false,
      "stateMutability": "view",
      "type": "function"
    },
    {
      "constant": true,
      "inputs": [
        {
          "internalType": "address",
          "name": "",
          "type": "address"
        }
      ],
      "name": "votedORnot",
      "outputs": [
        {
          "internalType": "bool",
          "name": "",
          "type": "bool"
        }
      ],
      "payable": false,
      "stateMutability": "view",
      "type": "function"
    },
    {
      "constant": true,
      "inputs": [],
      "name": "voterCount",
      "outputs": [
        {
          "internalType": "uint256",
          "name": "",
          "type": "uint256"
        }
      ],
      "payable": false,
      "stateMutability": "view",
      "type": "function"
    },
    {
      "constant": true,
      "inputs": [
        {
          "internalType": "address",
          "name": "",
          "type": "address"
        }
      ],
      "name": "voters",
      "outputs": [
        {
          "internalType": "uint256",
          "name": "id",
          "type": "uint256"
        },
        {
          "internalType": "address",
          "name": "addr",
          "type": "address"
        },
        {
          "internalType": "string",
          "name": "name",
          "type": "string"
        },
        {
          "internalType": "bool",
          "name": "authorised",
          "type": "bool"
        }
      ],
      "payable": false,
      "stateMutability": "view",
      "type": "function"
    },
    {
      "constant": false,
      "inputs": [
        {
          "internalType": "address",
          "name": "addr",
          "type": "address"
        },
        {
          "internalType": "string",
          "name": "name",
          "type": "string"
        }
      ],
      "name": "authoriseVoter",
      "outputs": [],
      "payable": false,
      "stateMutability": "nonpayable",
      "type": "function"
    },
    {
      "constant": false,
      "inputs": [
        {
          "internalType": "uint256",
          "name": "cid",
          "type": "uint256"
        },
        {
          "internalType": "address",
          "name": "add",
          "type": "address"
        }
      ],
      "name": "vote_candidate",
      "outputs": [],
      "payable": false,
      "stateMutability": "nonpayable",
      "type": "function"
    },
    {
      "constant": true,
      "inputs": [],
      "name": "totalVotess",
      "outputs": [
        {
          "internalType": "uint256",
          "name": "",
          "type": "uint256"
        }
      ],
      "payable": false,
      "stateMutability": "view",
      "type": "function"
    }
  ],
  "bytecode": "0x60806040523480156200001157600080fd5b5033600860006101000a81548173ffffffffffffffffffffffffffffffffffffffff021916908373ffffffffffffffffffffffffffffffffffffffff160217905550620000cf6040518060400160405280600b81526020017f63616e64696461746520310000000000000000000000000000000000000000008152506040518060400160405280600381526020017f4d4e530000000000000000000000000000000000000000000000000000000000815250620002c560201b60201c565b6200014b6040518060400160405280600b81526020017f63616e64696461746520320000000000000000000000000000000000000000008152506040518060400160405280600881526020017f5368697653656e61000000000000000000000000000000000000000000000000815250620002c560201b60201c565b620001c76040518060400160405280600b81526020017f63616e64696461746520330000000000000000000000000000000000000000008152506040518060400160405280600381526020017f424a500000000000000000000000000000000000000000000000000000000000815250620002c560201b60201c565b620002436040518060400160405280600b81526020017f63616e64696461746520340000000000000000000000000000000000000000008152506040518060400160405280600381526020017f5243500000000000000000000000000000000000000000000000000000000000815250620002c560201b60201c565b620002bf6040518060400160405280600b81526020017f63616e64696461746520350000000000000000000000000000000000000000008152506040518060400160405280600381526020017f4141500000000000000000000000000000000000000000000000000000000000815250620002c560201b60201c565b62000581565b600860009054906101000a900473ffffffffffffffffffffffffffffffffffffffff1673ffffffffffffffffffffffffffffffffffffffff163373ffffffffffffffffffffffffffffffffffffffff161462000389576040517f08c379a00000000000000000000000000000000000000000000000000000000081526004018080602001828103825260148152602001807f596f7520617265206e6f7420616e2041444d494e00000000000000000000000081525060200191505060405180910390fd5b60056000815480929190600101919050555060016040518060800160405280600554815260200183815260200184815260200160008152509080600181540180825580915050906001820390600052602060002090600402016000909192909190915060008201518160000155602082015181600101908051906020019062000414929190620004d2565b50604082015181600201908051906020019062000433929190620004d2565b50606082015181600301555050506040518060800160405280600554815260200182815260200183815260200160008152506000806005548152602001908152602001600020600082015181600001556020820151816001019080519060200190620004a1929190620004d2565b506040820151816002019080519060200190620004c0929190620004d2565b50606082015181600301559050505050565b828054600181600116156101000203166002900490600052602060002090601f016020900481019282601f106200051557805160ff191683800117855562000546565b8280016001018555821562000546579182015b828111156200054557825182559160200191906001019062000528565b5b50905062000555919062000559565b5090565b6200057e91905b808211156200057a57600081600090555060010162000560565b5090565b90565b6110a280620005916000396000f3fe608060405234801561001057600080fd5b50600436106100a95760003560e01c80639b621e02116100715780639b621e02146102c3578063a3ec138d1461039e578063a9a981a3146104a0578063e7b57ef3146104be578063f1c7366c1461050c578063fa9e017f1461062d576100a9565b80630b05ff0b146100ae57806326c2e5921461011c5780633477ee2e1461013a57806342169e481461025b5780638da5cb5b14610279575b600080fd5b6100da600480360360208110156100c457600080fd5b8101908080359060200190929190505050610689565b604051808273ffffffffffffffffffffffffffffffffffffffff1673ffffffffffffffffffffffffffffffffffffffff16815260200191505060405180910390f35b6101246106bc565b6040518082815260200191505060405180910390f35b6101666004803603602081101561015057600080fd5b81019080803590602001909291905050506106c6565b604051808581526020018060200180602001848152602001838103835286818151815260200191508051906020019080838360005b838110156101b657808201518184015260208101905061019b565b50505050905090810190601f1680156101e35780820380516001836020036101000a031916815260200191505b50838103825285818151815260200191508051906020019080838360005b8381101561021c578082015181840152602081019050610201565b50505050905090810190601f1680156102495780820380516001836020036101000a031916815260200191505b50965050505050505060405180910390f35b610263610826565b6040518082815260200191505060405180910390f35b61028161082c565b604051808273ffffffffffffffffffffffffffffffffffffffff1673ffffffffffffffffffffffffffffffffffffffff16815260200191505060405180910390f35b61039c600480360360408110156102d957600080fd5b81019080803573ffffffffffffffffffffffffffffffffffffffff1690602001909291908035906020019064010000000081111561031657600080fd5b82018360208201111561032857600080fd5b8035906020019184600183028401116401000000008311171561034a57600080fd5b91908080601f016020809104026020016040519081016040528093929190818152602001838380828437600081840152601f19601f820116905080830192505050505050509192919290505050610852565b005b6103e0600480360360208110156103b457600080fd5b81019080803573ffffffffffffffffffffffffffffffffffffffff169060200190929190505050610a8b565b604051808581526020018473ffffffffffffffffffffffffffffffffffffffff1673ffffffffffffffffffffffffffffffffffffffff1681526020018060200183151515158152602001828103825284818151815260200191508051906020019080838360005b83811015610462578082015181840152602081019050610447565b50505050905090810190601f16801561048f5780820380516001836020036101000a031916815260200191505b509550505050505060405180910390f35b6104a8610b80565b6040518082815260200191505060405180910390f35b61050a600480360360408110156104d457600080fd5b8101908080359060200190929190803573ffffffffffffffffffffffffffffffffffffffff169060200190929190505050610b86565b005b6105386004803603602081101561052257600080fd5b8101908080359060200190929190505050610e0e565b604051808581526020018060200180602001848152602001838103835286818151815260200191508051906020019080838360005b8381101561058857808201518184015260208101905061056d565b50505050905090810190601f1680156105b55780820380516001836020036101000a031916815260200191505b50838103825285818151815260200191508051906020019080838360005b838110156105ee5780820151818401526020810190506105d3565b50505050905090810190601f16801561061b5780820380516001836020036101000a031916815260200191505b50965050505050505060405180910390f35b61066f6004803603602081101561064357600080fd5b81019080803573ffffffffffffffffffffffffffffffffffffffff169060200190929190505050610f7b565b604051808215151515815260200191505060405180910390f35b60026020528060005260406000206000915054906101000a900473ffffffffffffffffffffffffffffffffffffffff1681565b6000600754905090565b6000602052806000526040600020600091509050806000015490806001018054600181600116156101000203166002900480601f0160208091040260200160405190810160405280929190818152602001828054600181600116156101000203166002900480156107785780601f1061074d57610100808354040283529160200191610778565b820191906000526020600020905b81548152906001019060200180831161075b57829003601f168201915b505050505090806002018054600181600116156101000203166002900480601f0160208091040260200160405190810160405280929190818152602001828054600181600116156101000203166002900480156108165780601f106107eb57610100808354040283529160200191610816565b820191906000526020600020905b8154815290600101906020018083116107f957829003601f168201915b5050505050908060030154905084565b60065481565b600860009054906101000a900473ffffffffffffffffffffffffffffffffffffffff1681565b600860009054906101000a900473ffffffffffffffffffffffffffffffffffffffff1673ffffffffffffffffffffffffffffffffffffffff163373ffffffffffffffffffffffffffffffffffffffff1614610915576040517f08c379a00000000000000000000000000000000000000000000000000000000081526004018080602001828103825260148152602001807f596f7520617265206e6f7420616e2041444d494e00000000000000000000000081525060200191505060405180910390fd5b6006600081548092919060010191905055508160026000600654815260200190815260200160002060006101000a81548173ffffffffffffffffffffffffffffffffffffffff021916908373ffffffffffffffffffffffffffffffffffffffff160217905550604051806080016040528060065481526020018373ffffffffffffffffffffffffffffffffffffffff16815260200182815260200160011515815250600360008473ffffffffffffffffffffffffffffffffffffffff1673ffffffffffffffffffffffffffffffffffffffff1681526020019081526020016000206000820151816000015560208201518160010160006101000a81548173ffffffffffffffffffffffffffffffffffffffff021916908373ffffffffffffffffffffffffffffffffffffffff1602179055506040820151816002019080519060200190610a63929190610f9b565b5060608201518160030160006101000a81548160ff0219169083151502179055509050505050565b60036020528060005260406000206000915090508060000154908060010160009054906101000a900473ffffffffffffffffffffffffffffffffffffffff1690806002018054600181600116156101000203166002900480601f016020809104026020016040519081016040528092919081815260200182805460018160011615610100020316600290048015610b635780601f10610b3857610100808354040283529160200191610b63565b820191906000526020600020905b815481529060010190602001808311610b4657829003601f168201915b5050505050908060030160009054906101000a900460ff16905084565b60055481565b60001515600460008373ffffffffffffffffffffffffffffffffffffffff1673ffffffffffffffffffffffffffffffffffffffff16815260200190815260200160002060009054906101000a900460ff16151514610c4c576040517f08c379a00000000000000000000000000000000000000000000000000000000081526004018080602001828103825260168152602001807f596f75206861766520416c726561647920766f7465640000000000000000000081525060200191505060405180910390fd5b60011515600360008373ffffffffffffffffffffffffffffffffffffffff1673ffffffffffffffffffffffffffffffffffffffff16815260200190815260200160002060030160009054906101000a900460ff16151514610cf8576040517f08c379a000000000000000000000000000000000000000000000000000000000815260040180806020018281038252602d815260200180611041602d913960400191505060405180910390fd5b600082118015610d0a57506005548211155b610d7c576040517f08c379a000000000000000000000000000000000000000000000000000000000815260040180806020018281038252601f8152602001807f506c656173652073656c65637420636f72726563742063616e6469646174650081525060200191505060405180910390fd5b6001600080848152602001908152602001600020600301600082825401925050819055506007600081548092919060010191905055506001600460003373ffffffffffffffffffffffffffffffffffffffff1673ffffffffffffffffffffffffffffffffffffffff16815260200190815260200160002060006101000a81548160ff0219169083151502179055505050565b60018181548110610e1b57fe5b9060005260206000209060040201600091509050806000015490806001018054600181600116156101000203166002900480601f016020809104026020016040519081016040528092919081815260200182805460018160011615610100020316600290048015610ecd5780601f10610ea257610100808354040283529160200191610ecd565b820191906000526020600020905b815481529060010190602001808311610eb057829003601f168201915b505050505090806002018054600181600116156101000203166002900480601f016020809104026020016040519081016040528092919081815260200182805460018160011615610100020316600290048015610f6b5780601f10610f4057610100808354040283529160200191610f6b565b820191906000526020600020905b815481529060010190602001808311610f4e57829003601f168201915b5050505050908060030154905084565b60046020528060005260406000206000915054906101000a900460ff1681565b828054600181600116156101000203166002900490600052602060002090601f016020900481019282601f10610fdc57805160ff191683800117855561100a565b8280016001018555821561100a579182015b82811115611009578251825591602001919060010190610fee565b5b509050611017919061101b565b5090565b61103d91905b80821115611039576000816000905550600101611021565b5090565b9056fe596f7520617265206e6f7420617574686f7269736564202e20506c6561736520436f6e746163742041646d696ea265627a7a72315820020a108b4ae87a50c99e0865a1015bdb124aaad4de5156a96fb59b1f5315cf2f64736f6c63430005100032",
  "source": "pragma solidity ^0.5.16;\n\ncontract Election{\n\n    struct candidate{\n        uint id;\n        string party;\n        string name;\n        uint VC;\n    }\n\n    struct voter{\n        uint id;\n        address addr;\n        string name;\n        bool authorised;\n    }\n    // creating a table to store all candidates\n    mapping (uint => candidate) public candidates;\n    candidate[] public candidat;\n\n    //table for voters\n    mapping (uint => address ) public VAdress;\n    mapping (address => voter) public voters;\n\n    // creating a table to cheak if person voted or not\n    mapping (address => bool) public votedORnot;\n\n    uint public candidateCount;\n    uint public voterCount;\n    uint private totalVotes;\n\n    address public owner;\n\n    modifier _ownerOnly(){\n\n        require(msg.sender == owner,'You are not an ADMIN');\n        _;\n    }\n    //Constructor i.e. executes only at time of deployent\n\n    constructor() public{\n        owner = msg.sender;\n        addCandidate(\"candidate 1\",\"MNS\");\n        addCandidate(\"candidate 2\",\"ShivSena\");\n        addCandidate(\"candidate 3\",\"BJP\");\n        addCandidate(\"candidate 4\",\"RCP\");\n        addCandidate(\"candidate 5\",\"AAP\");\n    }\n\n\n    function addCandidate(string memory name,string memory party) private _ownerOnly {\n        candidateCount++;\n        candidat.push(candidate(candidateCount,party,name,0));\n        candidates[candidateCount] = candidate(candidateCount,party,name,0);\n\n    }\n\n    function authoriseVoter (address addr, string memory name) public _ownerOnly {\n        voterCount++;\n        VAdress[voterCount] = addr;\n        voters[addr] = voter(voterCount,addr, name,true);\n\n    }\n    // function authoriseVoter (address add) public  {\n    //     voterCount++;\n    //     voters[add] = voter(voterCount,true);\n\n    // }\n\n    function vote_candidate( uint cid,address add) public{\n        // voting will only start if, there are more than 1000 voters\n        // require(voterCount>=1000,'voting will only start if, there are more than 1000 voters');\n\n        require(votedORnot[add] == false,'You have Already voted');\n\n        require(voters[add].authorised == true,'You are not authorised . Please Contact Admin');\n\n        require(cid > 0 && cid <= candidateCount,'Please select correct candidate');\n\n        candidates[cid].VC += 1;\n        totalVotes++;\n        votedORnot[msg.sender] = true;\n    }\n\n    function totalVotess( ) external view returns(uint){\n        return totalVotes;\n\n    }\n\n}\n\n",
  "sourcePath": "/home/ashu/Desktop/Blockchain/voting/contracts/Election.sol",
  "compiler": {
    "name": "solc",
    "version": "0.5.16+commit.9c3226ce.Emscripten.clang"
  },
  "schemaVersion": "3.2.0",
  "updatedAt": "2020-06-10T00:59:02.985Z",
  "networkType": "ethereum",
  "devdoc": {
    "methods": {}
  },
  "userdoc": {
    "methods": {}
  }
}