{
  "contractName": "Voter",
  "abi": [
    {
      "inputs": [
        {
          "internalType": "address",
          "name": "_OLVoteSys",
          "type": "address"
        },
        {
          "internalType": "string",
          "name": "_name",
          "type": "string"
        },
        {
          "internalType": "string",
          "name": "_IDProof",
          "type": "string"
        },
        {
          "internalType": "string",
          "name": "_password",
          "type": "string"
        },
        {
          "internalType": "uint256",
          "name": "_age",
          "type": "uint256"
        }
      ],
      "payable": false,
      "stateMutability": "nonpayable",
      "type": "constructor"
    },
    {
      "constant": true,
      "inputs": [
        {
          "internalType": "uint256",
          "name": "",
          "type": "uint256"
        }
      ],
      "name": "allVoters",
      "outputs": [
        {
          "internalType": "address",
          "name": "",
          "type": "address"
        }
      ],
      "payable": false,
      "stateMutability": "view",
      "type": "function"
    },
    {
      "constant": false,
      "inputs": [
        {
          "internalType": "int256",
          "name": "to",
          "type": "int256"
        }
      ],
      "name": "vote",
      "outputs": [],
      "payable": false,
      "stateMutability": "nonpayable",
      "type": "function"
    },
    {
      "constant": true,
      "inputs": [],
      "name": "isEligible",
      "outputs": [
        {
          "internalType": "bool",
          "name": "",
          "type": "bool"
        }
      ],
      "payable": false,
      "stateMutability": "view",
      "type": "function"
    },
    {
      "constant": true,
      "inputs": [],
      "name": "getVoterDetails",
      "outputs": [
        {
          "internalType": "string",
          "name": "",
          "type": "string"
        },
        {
          "internalType": "string",
          "name": "",
          "type": "string"
        },
        {
          "internalType": "uint256",
          "name": "",
          "type": "uint256"
        },
        {
          "internalType": "int256",
          "name": "",
          "type": "int256"
        },
        {
          "internalType": "string",
          "name": "",
          "type": "string"
        }
      ],
      "payable": false,
      "stateMutability": "view",
      "type": "function"
    }
  ],
  "bytecode": "0x60806040527fffffffffffffffffffffffffffffffffffffffffffffffffffffffffffffffff60065560006008553480156200003a57600080fd5b5060405162000a5338038062000a53833981810160405262000060919081019062000251565b846000806101000a81548173ffffffffffffffffffffffffffffffffffffffff021916908373ffffffffffffffffffffffffffffffffffffffff1602179055508360019080519060200190620000b892919062000118565b508260029080519060200190620000d192919062000118565b508160059080519060200190620000ea92919062000118565b50806003819055506000600460006101000a81548160ff021916908315150217905550505050505062000421565b828054600181600116156101000203166002900490600052602060002090601f016020900481019282601f106200015b57805160ff19168380011785556200018c565b828001600101855582156200018c579182015b828111156200018b5782518255916020019190600101906200016e565b5b5090506200019b91906200019f565b5090565b620001c491905b80821115620001c0576000816000905550600101620001a6565b5090565b90565b600081519050620001d881620003ed565b92915050565b600082601f830112620001f057600080fd5b81516200020762000201826200034c565b6200031e565b915080825260208301602083018583830111156200022457600080fd5b62000231838284620003b7565b50505092915050565b6000815190506200024b8162000407565b92915050565b600080600080600060a086880312156200026a57600080fd5b60006200027a88828901620001c7565b955050602086015167ffffffffffffffff8111156200029857600080fd5b620002a688828901620001de565b945050604086015167ffffffffffffffff811115620002c457600080fd5b620002d288828901620001de565b935050606086015167ffffffffffffffff811115620002f057600080fd5b620002fe88828901620001de565b925050608062000311888289016200023a565b9150509295509295909350565b6000604051905081810181811067ffffffffffffffff821117156200034257600080fd5b8060405250919050565b600067ffffffffffffffff8211156200036457600080fd5b601f19601f8301169050602081019050919050565b600062000386826200038d565b9050919050565b600073ffffffffffffffffffffffffffffffffffffffff82169050919050565b6000819050919050565b60005b83811015620003d7578082015181840152602081019050620003ba565b83811115620003e7576000848401525b50505050565b620003f88162000379565b81146200040457600080fd5b50565b6200041281620003ad565b81146200041e57600080fd5b50565b61062280620004316000396000f3fe608060405234801561001057600080fd5b506004361061004c5760003560e01c80633891c3201461005157806343e1ca491461006d5780637d24c2101461008b57806385650674146100ad575b600080fd5b61006b6004803603610066919081019061039a565b6100dd565b005b610075610102565b604051610082919061047c565b60405180910390f35b610093610144565b6040516100a4959493929190610497565b60405180910390f35b6100c760048036036100c291908101906103c3565b61033d565b6040516100d49190610461565b60405180910390f35b806006819055506001600460006101000a81548160ff02191690831515021790555050565b60006012600354116101175760009050610141565b60011515600460009054906101000a900460ff161515141561013c5760009050610141565b600190505b90565b6060806000806060600160026003546006546005848054600181600116156101000203166002900480601f0160208091040260200160405190810160405280929190818152602001828054600181600116156101000203166002900480156101ed5780601f106101c2576101008083540402835291602001916101ed565b820191906000526020600020905b8154815290600101906020018083116101d057829003601f168201915b50505050509450838054600181600116156101000203166002900480601f0160208091040260200160405190810160405280929190818152602001828054600181600116156101000203166002900480156102895780601f1061025e57610100808354040283529160200191610289565b820191906000526020600020905b81548152906001019060200180831161026c57829003601f168201915b50505050509350808054600181600116156101000203166002900480601f0160208091040260200160405190810160405280929190818152602001828054600181600116156101000203166002900480156103255780601f106102fa57610100808354040283529160200191610325565b820191906000526020600020905b81548152906001019060200180831161030857829003601f168201915b50505050509050945094509450945094509091929394565b60076020528060005260406000206000915054906101000a900473ffffffffffffffffffffffffffffffffffffffff1681565b60008135905061037f816105b1565b92915050565b600081359050610394816105c8565b92915050565b6000602082840312156103ac57600080fd5b60006103ba84828501610370565b91505092915050565b6000602082840312156103d557600080fd5b60006103e384828501610385565b91505092915050565b6103f58161051b565b82525050565b6104048161052d565b82525050565b61041381610539565b82525050565b6000610424826104ff565b61042e818561050a565b935061043e81856020860161056d565b610447816105a0565b840191505092915050565b61045b81610563565b82525050565b600060208201905061047660008301846103ec565b92915050565b600060208201905061049160008301846103fb565b92915050565b600060a08201905081810360008301526104b18188610419565b905081810360208301526104c58187610419565b90506104d46040830186610452565b6104e1606083018561040a565b81810360808301526104f38184610419565b90509695505050505050565b600081519050919050565b600082825260208201905092915050565b600061052682610543565b9050919050565b60008115159050919050565b6000819050919050565b600073ffffffffffffffffffffffffffffffffffffffff82169050919050565b6000819050919050565b60005b8381101561058b578082015181840152602081019050610570565b8381111561059a576000848401525b50505050565b6000601f19601f8301169050919050565b6105ba81610539565b81146105c557600080fd5b50565b6105d181610563565b81146105dc57600080fd5b5056fea365627a7a723158206b69ca1f62212780c9c5b3c75a82dc597da6d56b098e971456017189eaf9c8cc6c6578706572696d656e74616cf564736f6c63430005100040",
  "source": "pragma solidity >=0.4.25;\npragma experimental ABIEncoderV2;\n\n\ncontract OLVoteSys {\n    // Global Variables\n\n    struct Candidate {\n        string name;\n        string represent;\n        uint256 age;\n        uint256 noOfVotes;\n    }\n\n    mapping(uint256 => Candidate) public allCandidates;\n    mapping(uint256 => address) public voters;\n\n    uint256 noOfCandidates = 0;\n    uint256 noOfVoters = 0;\n\n    // Methods\n\n    function registerCandidate(\n        string memory _name,\n        string memory _represent,\n        uint256 _age\n    ) public {\n        allCandidates[noOfCandidates].name = _name;\n        allCandidates[noOfCandidates].represent = _represent;\n        allCandidates[noOfCandidates].age = _age;\n        allCandidates[noOfCandidates].noOfVotes = 0;\n        noOfCandidates++;\n    }\n\n    function registerVoter(address _voterAddress) public returns (uint256) {\n        voters[noOfVoters++] = _voterAddress;\n        return noOfVoters;\n    }\n\n    function vote(uint256 to) public {\n        allCandidates[to].noOfVotes++;\n    }\n\n    function getResultTillNow(uint256 i) public view returns (uint256) {\n        return allCandidates[i].noOfVotes;\n    }\n\n    function getNoOfCandidates() public view returns (uint256) {\n        return noOfCandidates;\n    }\n\n    function getNoOfVoters() public view returns (uint256) {\n        return noOfVoters;\n    }\n\n    function getVoterAddress(uint id) public view returns (address) {\n        return voters[id];\n    }\n\n    function showCandidate(uint id) public view returns (Candidate memory) {\n        return allCandidates[id];\n    }\n}\n\n\ncontract Voter {\n    address consensus;\n    string name;\n    string IDProof;\n    uint256 age;\n    bool hasVoted;\n    string password;\n    int votedTo = -1;\n\n    mapping(uint256 => address) public allVoters;\n    uint256 noOfVoters = 0;\n\n    constructor(\n        address _OLVoteSys,\n        string memory _name,\n        string memory _IDProof,\n        string memory _password,\n        uint256 _age\n    ) public {\n        consensus = _OLVoteSys;\n        name = _name;\n        IDProof = _IDProof;\n        password = _password;\n        age = _age;\n        hasVoted = false;\n    }\n\n    function vote(int to) public {\n        votedTo = to;\n        hasVoted = true;\n    }\n\n    function isEligible() public view returns (bool) {\n        if (age <= 18) {\n            return false;\n        } else if (hasVoted == true) {\n            return false;\n        } else {\n            return true;\n        }\n    }\n\n    function getVoterDetails() public view returns (string memory, string memory, uint, int, string memory) {\n        return (name, IDProof, age, votedTo, password);\n    }\n}\n",
  "sourcePath": "/home/badminton-bhivpa/Work/internship/Online Decentralized Election/contracts/OLVoteSys.sol",
  "compiler": {
    "name": "solc",
    "version": "0.5.16+commit.9c3226ce.Emscripten.clang"
  },
  "schemaVersion": "3.1.0",
  "updatedAt": "2020-05-09T05:03:56.616Z",
  "devdoc": {
    "methods": {}
  },
  "userdoc": {
    "methods": {}
  }
}